:020000040800F2
:10000000580A0020890100084F210008B71C000889
:100010004D2100088F020008792B00080000000025
:100020000000000000000000000000001125000892
:10003000A90300080000000079210008132500082A
:10004000A3010008A3010008A3010008A301000800
:10005000A3010008A3010008AB030008B1030008D6
:10006000A3010008A3010008A3010008A3010008E0
:10007000A301000891020008A30100089D020008E6
:10008000A3010008A3010008A3010008A3010008C0
:10009000A3010008A3010008A3010008B70300089A
:1000A000A3010008A3010008A3010008A3010008A0
:1000B000A301000879250008A3010008A301000896
:1000C000A3010008A3010008A3010008A301000880
:1000D000A30100082D2B0008A3010008A3010008BC
:1000E000A3010008A3010008A301000800F002F822
:1000F00000F03AF80AA090E8000C82448344AAF188
:100100000107DA4501D100F02FF8AFF2090EBAE885
:100110000F0013F0010F18BFFB1A43F0010318473B
:10012000D8360000F8360000103A24BF78C878C1ED
:10013000FAD8520724BF30C830C144BF04680C60ED
:10014000704700000023002400250026103A28BF35
:1001500078C1FBD8520728BF30C148BF0B60704739
:100160001FB51FBD10B510BD00F058F81146FFF7C0
:10017000F7FF02F093FD00F076F803B4FFF7F2FF0B
:1001800003BC00F07DF8000009488047094800479B
:10019000FEE7FEE7FEE7FEE7FEE7FEE7FEE7FEE737
:1001A000FEE7FEE704480549054A064B7047000094
:1001B00075250008ED00000858040020580A0020AA
:1001C00058060020580600204FF0000200B51346E4
:1001D00094469646203922BFA0E80C50A0E80C5067
:1001E000B1F12001BFF4F7AF090728BFA0E80C5018
:1001F00048BF0CC05DF804EB890028BF40F8042B11
:1002000008BF704748BF20F8022B11F0804F18BF7D
:1002100000F8012B7047704770477047754600F033
:100220002BF8AE4605006946534620F00700854688
:1002300018B020B5FFF7B6FFBDE820404FF000062C
:100240004FF000074FF000084FF0000B21F00701BE
:10025000AC46ACE8C009ACE8C009ACE8C009ACE801
:10026000C0098D46704710B50446AFF300802046A4
:10027000BDE81040FFF781BF00487047F40300203D
:1002800001491820ABBEFEE7260002007047FEE7DA
:10029000014800F00FB90000AC000020014800F058
:1002A00009B900005802002030B590F840500124F0
:1002B000AC40C56B6C60046863604368102B0368D6
:1002C00003D099600068C26030BD9A600068C16068
:1002D00030BD000000B503460020314A02E0401C5A
:1002E000C0B2521C1178A52901D01328F7D92D4886
:1002F000002101701178A52902D1517CA62902D0D4
:100300000121017000BD32F8010F5880508818801B
:100310009088D880D0889880108918815089588119
:10032000107B1876507B012102F037FC1873507B4C
:10033000022102F032FC5873507B082102F02DFCA0
:100340009873507B102102F028FCD873507B402119
:1003500002F023FC1874507B802102F01EFC5874BC
:10036000907B042102F019FC9874907B082102F024
:1003700014FCD874907B102102F00FFC1875907B50
:10038000202102F00AFC9875907B402102F005FCC8
:10039000D875D07B012102F000FC587500BD00002B
:1003A000B6020020140000207047012000F094B92C
:1003B000022000F091B910B5402000F08DF9BDE8A1
:1003C0001040802000F088B972B6FEE710B590F8B2
:1003D00021100022022905D00421816380F8202009
:1003E000012010BD01680B6823F00E030B6001684B
:1003F0000B6823F001030B6090F84030C46B0121BF
:1004000001FA03F3636080F8211080F82020104681
:1004100010BD000010B590F821100024022903D06F
:100420000421816301243DE001680A6822F00E0284
:100430000A6001680A6822F001020A601A4A01682B
:10044000914201D1012121E0174A1432914201D198
:1004500010211BE0144A2832914201D1891515E080
:10046000114A3C32914201D189140FE00E4A5032B8
:10047000914202D14FF4803108E00B4A643291423C
:1004800002D14FF4801101E04FF08071064A083A22
:100490005160012180F82110002180F82010416B6B
:1004A00001B18847204610BD0800024090F82100A5
:1004B000704700002DE9F05FC16B0C6801680B68A4
:1004C000D0F840C0042202FA0CF2494DDFF824A112
:1004D000494E4A4FDFF828B1DFF828E122422CD0FC
:1004E0005A072AD50A68920603D40A6822F0040241
:1004F0000A600168A94201D1042219E0514501D1E5
:10050000402215E0B14202D14FF4806210E0B942BE
:1005100002D14FF480420BE0594502D14FF48022C2
:1005200006E0714502D14FF4800201E04FF0806295
:100530002F4908394A60C16A3BE04FF0020808FAC7
:100540000CF818EA040F4FF000094FF0010235D003
:100550005FEA837832D50B689B0605D40B6823F0DD
:100560000A030B6080F821200168A94201D1022210
:1005700019E0514501D1202215E0B14202D14FF4DA
:10058000007210E0B94202D14FF400520BE059451D
:1005900002D14FF4003206E0714502D14FF400124F
:1005A00001E04FF00072124908394A6080F820904B
:1005B000816A00291AD0BDE8F05F0847082505FACE
:1005C0000CF5254212D01B0710D50B6823F00E0343
:1005D0000B6090F84010C36B02FA01F1596082631E
:1005E00080F8212080F82090016BE2E7BDE8F09FC1
:1005F000080002401C00024030000240440002405B
:10060000580002406C00024030B528B308C81349B6
:1006100014221944B1FBF2F18900C16310498163CE
:10062000022141771A6843F6F0718A43D0E9001439
:100630002143D0E902452C43214304692143446905
:100640002143846921431143196000214163012240
:1006500042770177084630BD012030BDF8FFFDBF6D
:100660000000024070B5044690F8200000250128E3
:100670000CD0012084F8200094F821600020012E85
:1006800006D084F820000225284670BD022070BDE7
:10069000022684F82160A0632068066826F001061F
:1006A00006602046FFF700FEE06A00282068016827
:1006B00002D041F00E0106E021F004010160206843
:1006C000016841F00A0101602068016841F0010100
:1006D0000160D9E770470000044910B50A6802427A
:1006E00002D00860FFF7F6FF10BD000014040140BF
:1006F0002DE9F84FDFF8B8910024A9F1040B234647
:100700000F2709F1040AABF1040EC9E00125A54049
:100710002A40AA427DD1674ED1F804C0ACEB06084E
:10072000B44532D014DCBCF1030F3AD009DCBCF183
:10073000000F2AD0BCF1010F1CD0BCF1020F31D147
:100740001DE0BCF1110F17D0BCF1120F2AD119E036
:10075000B8F5881F19D006DCB8F5803F15D0B8F57C
:10076000801F1FD111E0B8F5001F0ED0B8F5041F8F
:1007700018D10AE0CB6815E0CB681B1D12E0CB68EE
:1007800008330FE0CB680C330CE08B682BB1012BE6
:100790004FF0080303D0456104E0042302E0056143
:1007A00000E00023FF2A01D8064601E000F104061C
:1007B0004FEA840501D9A5F12005D6F8008007FA93
:1007C00005FC28EA0C0803FA05F548EA0508C6F80E
:1007D00000804D68ED0062D5374DAE6946F00106E8
:1007E000AE61AD6924F0030605F001050095334DB7
:1007F00006EB050CDCF80850A607360F07FA06F8DA
:1008000025EA0805DFF8B880404503D14FF000081D
:1008100017E044E0DFF8AC80404502D14FF001081A
:100820000FE0DFF8A480404502D14FF0020808E055
:10083000DFF89880404502D14FF0030801E04FF007
:10084000040808FA06F848EA0508CCF808804D685C
:10085000D9F80060ED024D4601D5164300E09643FD
:100860002E604D68DAF80060AD02554601D516439A
:1008700000E096432E604D68DBF80060AD035D46F6
:1008800001D5164300E096432E604D68DEF8006007
:10089000ED03754601D5164300E096432E60641CB7
:1008A0000D682A46E5407FF431AFBDE8F88F0000BF
:1008B0000804014000001110001002400000014037
:1008C00000080140000C01400010014000140140EC
:1008D0000AB1016170470904FBE700000148806824
:1008E000704700000000002002488168027811442F
:1008F0008160704700000020074810B5016841F092
:1009000010010160032000F075F80F2000F006F8D8
:1009100000F024F8002010BD0020024070B50D4DFD
:1009200004464FF47A712878B1FBF0F00A4909685F
:10093000B1FBF0F000F0F6FB48B9102C07D2002212
:100940002146501E00F036F800206C6070BD01207A
:1009500070BD0000000000200C0000200C4808B50D
:10096000816941F001018161816901F0010100911A
:10097000C16941F08051C161C06900F080500090B0
:100980000448416821F0E06141F00071416008BD18
:100990000010024000000140002809DB00F01F02A7
:1009A000012191404009800000F1E020C0F80011D1
:1009B00070470000F0B40E4B1B680C46C3F30223D3
:1009C000C3F10705042D00D90425191D072901D2FB
:1009D000002300E0DB1E012606FA05F1491E214036
:1009E00099409E40761E16403143F0BC02F0C5B8D7
:1009F0000CED00E0064900F0070208684FF6FF031F
:100A0000184040EA0220034A104308607047000083
:100A10000CED00E00000FA052DE9F0470F46050057
:100A200061D0434E306800F00700B84209D2306808
:100A300020F0070038433060306800F00700B8420B
:100A400051D128683B4C810712D5400703D5606817
:100A500040F4E06060602878000703D5606840F4E7
:100A6000605060606068A96820F0F0000843606032
:100A70002878C00728D06868012810D0216802288B
:100A800010D0890700292EDA616821F003010143A3
:100A90006160FFF723FF804641F288390DE021684D
:100AA0008903EFE78901EDE7FFF718FFA0EB0801E5
:100AB000494502D90320BDE8F0876068696800F005
:100AC0000C00B0EB810FEFD1306800F00700B842A6
:100AD0000BD9306820F0070038433060306800F0F0
:100AE0000700B84201D00120E5E72878400705D586
:100AF0006068E96820F4E0600843606028780007D7
:100B000006D56068296920F4605040EAC100606041
:100B100000F038F86168084AC1F30311515CC8401D
:100B20000649086006480068FFF7F8FE0020C2E7A3
:100B30000020024000100240CC3700080C000020CA
:100B4000040000200448054900684968044AC1F3CC
:100B50000221515CC84070470C0000200010024088
:100B6000DC3700080448054900684968044AC1F3B5
:100B7000C221515CC84070470C00002000100240A8
:100B8000DC3700080E4A51680E4801F00C03042BB4
:100B900011D0082B0FD10C48C1F38343C903C05CAB
:100BA0000AD55168084AC1F34041921E515C054A7A
:100BB0005043B0FBF1F070470449484370470000D0
:100BC0000010024000127A00BC37000800093D0006
:100BD0002DE9F84F040070D02078C04DC00749D0EF
:100BE0006868C0F38100012807D06868C0F38100FD
:100BF000022809D16868C00306D52868800339D562
:100C000060680028E7D035E06068B0F5803F0BD021
:100C100010B1B0F5A02F11D0286820F480302860E2
:100C2000286820F4802002E0286840F480302860A2
:100C3000606890B1FFF752FE06460AE0286840F46B
:100C400080202860F0E700BFFFF748FE801B642883
:100C500073D828688003F7D50CE0FFF73FFE0646FF
:100C600005E000BFFFF73AFE801B6428F0D8286833
:100C70008003F7D420789A4E80074FF001094FF097
:100C8000000839D5686810F00C0F07D06868C0F309
:100C90008100022809D16868C00306D4286880074B
:100CA00014D52069012808D110E02069B0B1C6F838
:100CB0000090FFF713FE074605E00AE1FFF70EFE7E
:100CC000C01B0228C4D828688007F7D52868616946
:100CD00020F0F80040EAC10028600DE0C6F800806E
:100CE000FFF7FCFD074604E0FFF7F8FDC01B0228F4
:100CF00023D828688007F7D4207800072CD57948B6
:100D0000A169D9B1C0F80090FFF7E8FD074604E0FB
:100D1000FFF7E4FDC01B02280FD8686A8007F7D5EB
:100D200071484FF4FA510068B0FBF1F0009000BF39
:100D30000098411E0091FAD20EE080E0C0F80080D9
:100D4000FFF7CCFD074604E0FFF7C8FDC01B0228F3
:100D500075D8686A8007F7D42078400760D5E869BD
:100D60000027C00008D4E86940F08050E861E869D5
:100D7000012700F0805000905C480168C90513D439
:100D80000168834641F480710160FFF7A7FD824648
:100D900006E000BFFFF7A2FDA0EB0A0064284ED8D2
:100DA000DBF80000C005F5D5E06801280AD008B1DD
:100DB000052813D0286A20F001002862286A20F054
:100DC000040002E0286A40F001002862E06841F275
:100DD000883B98B1FFF782FD82460BE0286A40F01D
:100DE00004002862EEE700BFFFF778FDA0EB0A01E0
:100DF00059455AD8286A8007F6D50CE0FFF76EFDF2
:100E0000824605E0FFF76AFDA0EB0A0159454CD880
:100E1000286A8007F6D41FB1E86920F08050E861A5
:100E2000E06988B36968C1F38101022944D00228CE
:100E3000C6F8608004D0FFF751FD044638E034E086
:100E4000FFF74CFD074604E0FFF748FDC01B0228F2
:100E50002BD828688001F7D4206AB0F5803F05D1EF
:100E60006868A16820F4003008436860D4E908018C
:100E70000843696821F4741108436860C6F86090FB
:100E8000FFF72CFD044606E025E000BFFFF726FD36
:100E9000001B022809D828688001F7D51BE000BF95
:100EA000FFF71CFD001B022802D90320BDE8F88FC4
:100EB00028688001F4D40EE00128F7D06868226A1F
:100EC00000F48031914204D1616A00F470108842CC
:100ED00001D00120EAE70020E8E70000001002400E
:100EE00000004242800442420C000020007000409A
:100EF000704770B5040009D0606A002540B12561D3
:100F00006561A56294F8510040B10CE0012070BD0C
:100F10006068B0F5827FF4D0E561F2E784F8505064
:100F2000204600F03FF8022084F851002068016854
:100F300021F040010160A088218900F4827001F451
:100F400004410843A18901F400610843217C01F0B8
:100F500002010843217D01F001010843218B01F4C6
:100F600000710843217F01F03801084394F82010F4
:100F700001F080010843218D01F4005108432168EC
:100F80000860A069042101EA1040216848602068D7
:100F9000C16921F40061C1616565012084F85100D7
:100FA000002070BDF0B585B000250646009501957E
:100FB000029503950068214988423DD12048816906
:100FC00041F480518161816901F48051049181690A
:100FD00041F00801816180691A4C00F0080004901A
:100FE00028200090022001900320039069462046AB
:100FF000FFF77EFB1027CDE9007569462046029574
:10100000FFF776FB1048416841F0E06141F00101D3
:1010100041600F4C0D48C4E900078020C4E902502C
:1010200025616561A5612046E561FFF7EDFA08B12C
:10103000FFF7CAF9B464666205B0F0BD0030014044
:1010400000100240000C014000000140300002404E
:10105000AC00002070B5044690F85000002601282E
:1010600009D0012084F8500094F85100002501288F
:1010700003D002264AE0022070BD89B182B103206C
:1010800084F8510065652163A286E286A5636564E4
:101090002564A587E587A068B0F5004F02D00BE076
:1010A000012633E02068016821F0400101602068DA
:1010B000016841F480410160A16C1648C862A16CCE
:1010C00015488862A16C15480863A06C4563E38EDF
:1010D0002268216B0C32A06CFFF7C4FA20B1606D5E
:1010E00040F010006065DBE720680168490603D422
:1010F000016841F0400101602068416841F0200131
:1011000041602068416841F00201416084F850501C
:10111000304670BDCB230008D5230008A923000862
:101120007047704710B5401EB0F1807F01D3012099
:1011300010BD4FF0E02460610F21601701F01DFD2C
:101140000020A06107202061002010BD704770477B
:1011500010B590F83C20012A22D0012280F83C20D2
:10116000CA688C6822F4407222434C6822F4806280
:1011700022430C6822F4006222430C6922F480525C
:1011800022434C6922F400522243C969002322F40D
:1011900080420A4301684A6480F83C30002010BD58
:1011A000022010BD70B590F83C20012A26D0012401
:1011B00080F83C40022280F83D2003685A689D6810
:1011C00022F070060A6832435A600D4B02689A4258
:1011D00008D0B2F1804F05D00A4B9A4202D00A4B98
:1011E0009A4204D1496825F080031943916080F840
:1011F0003D40002180F83C10084670BD022070BDC3
:10120000002C0140000400400008004010B504001C
:1012100003D094F83D0010B107E0012010BD00207C
:1012200084F83C00204600F01FF8022084F83D00BE
:10123000211D206801F0A6F9012084F8460084F8F9
:101240003E0084F83F0084F8400084F8410084F8B0
:10125000420084F8430084F8440084F8450084F890
:101260003D00002010BD000008B501681648B1F12E
:10127000804F14D0154A914219D1C16941F0020141
:10128000C161C069002200F00200009011461D20DB
:10129000FFF790FBBDE808401D20FFF77DBBC1694B
:1012A00041F00101C161C06900F0010009E0084A94
:1012B000914207D1C16941F00401C161C06900F0E8
:1012C0000400009008BD000000100240000400402F
:1012D0000008004090F83D10012901D0012070471E
:1012E000022180F83D1000680B49884208D0B0F117
:1012F000804F05D00949884202D00949884204D16B
:10130000816801F00701062903D0016841F001015D
:101310000160002070470000002C014000040040E4
:101320000008004090F83D10012901D001207047CD
:10133000022180F83D100168CA6842F00102CA60CB
:1013400000680B49884208D0B0F1804F05D00949A8
:10135000884202D00849884204D1816801F007011F
:10136000062903D0016841F00101016000207047A7
:10137000002C0140000400400008004070B5044605
:1013800090F83C000025012817D0012684F83C6025
:10139000022084F83D002068826822F0770222F45F
:1013A0007F4282600868502838D00DDC20284FD05A
:1013B00005DC90B3102811D14AE0022070BD30281E
:1013C00046D040280AD13BE060282FD070280DD0AD
:1013D000B0F5805F03D0B0F5005F12D0012584F82E
:1013E0003D60002084F83C00284670BDCB68D1E900
:1013F0000121206801F009F92068816841F0770136
:1014000009E0CB68D1E90121206801F0FEF82068ED
:10141000816841F480418160E1E719E0CA68496868
:10142000206801F0A7F95021206806E0CA684968E1
:10143000206801F0B0F96021206801F0F0F8CEE7F3
:10144000CA684968206801F095F940212068F4E7EE
:10145000226801461046F0E7704770B50446006800
:1014600001694FF00005C943890715D4C168C94314
:10147000890711D4E91E0161012020772068806965
:101480008007204602D0FFF7E7FF04E000F0E2F813
:10149000204600F087F9257720680169C94349078C
:1014A00017D4C168C943490713D46FF0040101611F
:1014B000022020772068806910F4407F204602D007
:1014C000FFF7CAFF04E000F0C5F8204600F06AF913
:1014D000257720680169C943090716D4C168C94343
:1014E000090712D46FF008010161042020772068F9
:1014F000C0698007204602D0FFF7AEFF04E000F08D
:10150000A9F8204600F04EF9257720680169C94303
:10151000C90617D4C168C943C90613D46FF01001B6
:101520000161082020772068C06910F4407F2046C0
:1015300002D0FFF791FF04E000F08CF8204600F0A5
:1015400031F9257720680169C943C90708D1C16805
:10155000C943C90704D1891E0161204600F072F910
:1015600020680169C943090609D4C168C94309064D
:1015700005D46FF0800101612046FFF7E7FD206888
:101580000169C943490609D4C168C943490605D45C
:101590006FF040010161204600F080F92068016988
:1015A000C94389060BD4C168C943890607D46FF0C3
:1015B000200101612046BDE87040FFF7C8BD70BD45
:1015C00010B586B0002100910191029103911C4C4D
:1015D00003681C4A02211C48A3420AD1936943F0C4
:1015E00004039361926902F0040204924FF41062C2
:1015F0001EE0B3F1804F12D0144883421ED190698F
:1016000040F0080090619069039100F00800049098
:101610004FF4E070CDE9000169460D480CE0936994
:1016200043F004039361926902F0040204920722DA
:10163000CDE9002103916946FFF75AF806B010BDC5
:10164000002C01400010024000080140000800404A
:10165000000C0140704770B5044690F83C0000262D
:101660000D4601280FD0012084F83C006AB1042AFD
:101670001DD0082A2FD00C2A3FD00126002084F844
:101680003C00304670BD022070BD206800F0D0FFE5
:101690002068816941F0080181612068816921F039
:1016A00004018161206881692A69114311E0206881
:1016B00000F0E6FF2068816941F4006181612068E3
:1016C000816921F480618161206881692A6941EA28
:1016D00002218161D2E7206800F0FEFF2068C16925
:1016E00041F00801C1612068C16921F00401C161B4
:1016F0002068C1692A69114311E0206801F018F8D7
:101700002068C16941F40061C1612068C16921F4A8
:101710008061C1612068C1692A6941EA0221C16111
:10172000ACE710B5040003D094F83D0010B107E019
:10173000012010BD002084F83C00204600F01EF877
:10174000022084F83D00211D206800F01BFF0120CD
:1017500084F8460084F83E0084F83F0084F8400096
:1017600084F8410084F8420084F8430084F844007F
:1017700084F8450084F83D00002010BD08B50068DD
:101780000649884208D10648816941F400618161B7
:10179000806900F40060009008BD0000002C01404A
:1017A000001002407047000010B50446022249B103
:1017B00004290ED0082913D094F84100012816D02E
:1017C000012010BD94F83E000128F9D184F83E2094
:1017D0000FE094F83F000128F2D184F83F2008E0A0
:1017E00094F840000128EBD184F8402001E084F80F
:1017F00041200122206800F0FBFE0F49206888424A
:1018000003D1426C42F4004242642068884208D00E
:10181000B0F1804F05D00949884202D0084988427A
:1018200004D1816801F00701062903D0016841F065
:1018300001010160002010BD002C014000040040A7
:101840000008004070B500680E49884218D10E4C5F
:101850002078012809D10D4D2878122805D10C488F
:10186000FEF738FD002028702070242209490A481C
:1018700000F010FA00F0F8FCBDE8704000F042BD46
:1018800070BD000000040040110000201000002086
:101890009C020020B6020020100200207047704712
:1018A00010B504460068406994F84110C0F3C010B8
:1018B000212911D180B12068143050E8001F21F097
:1018C000800140E80012002AF5D1A06B08B1FEF7B4
:1018D0007DFD204601F017F82068406994F8421019
:1018E000C0F38010222911D180B12068143050E853
:1018F000001F21F0400140E80012002AF5D1E06B02
:1019000008B1FEF763FD204600F0D6FF002010BDB1
:1019100070470000F8B5016804460868CA684B695A
:1019200010F00F0F4FF0000559D003F0010602F43C
:101930009077374365D0C10705D0D10503D5616CD9
:1019400041F001016164410705D5D90703D0616CFD
:1019500041F002016164810705D5D90703D0616CAC
:1019600041F004016164010707D502F02001314311
:1019700003D0616C41F008016164616C00293AD0C8
:10198000800604D5900602D5204600F0CAFF2068E4
:101990004069616CC0F38010090700D460B3204631
:1019A00000F08AFF20684069400621D52068143085
:1019B00050E8001F21F0400140E80012002AF5D154
:1019C000E06BA8B16D494163E06BFEF723FD002891
:1019D00011D0E06B416B01B0BDE8F04008478306D1
:1019E0000FD593060DD52046BDE8F84000F099BF0D
:1019F0002046FFF78DFFF8BD2046FFF789FF65649D
:101A0000F8BD266B2023012E7CD1C6067AD5D606DA
:101A100078D508684868009048694FF0020640068B
:101A200040D5E16B086840680004000CE8D0A28D46
:101A30008242E5D9E085886920282DD020680C30C5
:101A400050E8001F21F4807140E80012002AF5D10F
:101A50002068143050E8001F21F0010140E8001216
:101A6000002AF5D12068143050E8001F21F0400111
:101A700040E80012002AF5D184F84230256320683E
:101A80000C3050E8001F21F0100140E80012002A3D
:101A9000F5D1E06BFEF79AFC6663A08DE18D401AEC
:101AA00081B22AE0A08DE18D401A81B2E08D00283C
:101AB000A6D00029A4D022680C3252E8000F20F4EE
:101AC000907042E80007002FF5D12068143050E8EC
:101AD000002F22F0010240E80027002FF5D184F802
:101AE0004230256320680C3050E8002F22F01002AD
:101AF00040E80023002BF5D166632046FFF7CFFEB8
:101B0000F8BDFFE705062BD5150629D594F8410049
:101B10002128F5D1A068B0F5805F01D12069B0B16E
:101B2000206A411C2162216800784860E08C401ED8
:101B30000004000CE084E3D12068C16821F080013A
:101B4000C1602068C16841F04001C160D8E7206AE7
:101B50000088C0F308004860206A801C2062E5E726
:101B60004006CDD55006CBD5CA68204622F04002AB
:101B7000CA6084F8413000F09DF8C1E7BB27000837
:101B800070B5040004D094F84100002510B106E0BF
:101B9000012070BD84F84050204600F023F8242036
:101BA00084F841002068C16821F40051C1602046DA
:101BB00000F018FF2068016921F49041016120685C
:101BC000416921F02A0141612068C16841F4005156
:101BD000C1606564202084F8410084F84200656398
:101BE000002070BD70B586B00025064600950195B1
:101BF000029503950068224988423FD121498869AE
:101C000040F480408861886900F4804004908869CD
:101C100040F00400886188691B4C00F004000490C7
:101C20004815009002200190032003906946204649
:101C3000FEF75EFD2015CDE90005694620460295B8
:101C4000FEF756FD124C1148C4E900058020C4E996
:101C50000250256140016561C4E906502046FEF747
:101C6000D3FC08B1FEF7B0FBF46300221146252037
:101C70006662FEF79FFE2520FEF78EFE06B070BD61
:101C800000380140001002400008014058000240A6
:101C90005802002090F84230202B01D002207047DB
:101CA00021B11AB10023036300F0F8BE0120704790
:101CB000704770477047FEE70D4808B5416941F02D
:101CC000010141614069002200F0010000901146CD
:101CD0000D20FEF76FFE0D20FEF75EFE002211467E
:101CE0000F20FEF767FEBDE808400F20FEF754BE48
:101CF000001002402DE9F04786B0002442480094CD
:101D0000019402940394816941F010018161816919
:101D100001F010010491816941F020018161816924
:101D200001F020010491816941F004018161816920
:101D300001F004010491816941F008018161806929
:101D4000324F00F008004FF4C045049000222946AD
:101D50003846FEF7BDFDDFF8B89000223021484636
:101D6000FEF7B6FDDFF8ACA04FF470480022414604
:101D70005046FEF7ADFD0095022601250396CDE9FC
:101D8000015469463846FEF7B3FC3020CDE9000522
:101D9000CDE9024669464846FEF7AAFC1E4FC02020
:101DA000CDE90007694602944846FEF7A1FC0320EE
:101DB000CDE90007694602945046FEF799FCCDF83C
:101DC00000800396CDE9015469465046FEF790FC29
:101DD000002202210620FEF7EDFD0620FEF7DCFDC5
:101DE000002202210720FEF7E5FD0720FEF7D4FDC3
:101DF000002202211720FEF7DDFD1720FEF7CCFDA3
:101E000006B0BDE8F087000000100240001001405D
:101E100000080140000C014000001110104810B5EE
:101E20000E4901604FF482714160002102228160FD
:101E3000C0E9031201224261520282611022C0E90C
:101E40000721416281620A21C162FFF752F800282E
:101E500003D0BDE81040FEF7B7BA10BD0030014016
:101E60005400002010B592B000240F941C21684645
:101E70001094FEF7A9F9202107A8FEF7A5F9254837
:101E80002349016040F2CF21C0E9011440F2E7315B
:101E9000C0E9031444618461FFF743FC08B1FEF715
:101EA00093FA0F940FA91B481094FFF77BF908B120
:101EB000FEF78AFA6020CDE90004029403940494AA
:101EC00005940022694613480694FFF7C4FB08B145
:101ED000FEF77AFA0C2269460E48FFF7BCFB08B100
:101EE000FEF772FA0794089409944FF400500A948C
:101EF000CDE90B4007A907480E94FFF729F908B16F
:101F0000FEF762FA0348FFF75BFB12B010BD00005A
:101F1000002C0140F000002010B58EB00024079482
:101F2000089409940A940B941C2168460C94FEF7BB
:101F30004BF927484FF08041016041F61F41C0E94D
:101F40000114C721C0E9031480218161FFF75EF904
:101F500008B1FEF739FA4FF48050079007A91C48E2
:101F6000FFF70CFA08B1FEF72FFA1948FFF7D9FB73
:101F700008B1FEF729FA0B940BA915480C94FFF74A
:101F800011F908B1FEF720FA6020CDE90004022023
:101F900002900022694604940D48FFF75CFB08B1EB
:101FA000FEF712FA042269460948FFF754FB08B10C
:101FB000FEF70AFA082269460548FFF74CFB08B10C
:101FC000FEF702FA0248FFF7FBFA0EB010BD000060
:101FD0003801002010B586B0002418480094019400
:101FE00002940394049414490594016040F2CF21B3
:101FF000C0E9011440F2E731C0E903148021816196
:10200000FFF704F908B1FEF7DFF94FF480500090B4
:1020100069460A48FFF7B2F908B1FEF7D5F904940A
:1020200004A906480594FFF7BDF8002801D0FEF783
:10203000CBF906B010BD0000000400408001002074
:1020400010B58EB000240794089409940A940B9458
:102050001C2168460C94FEF7B7F827482549016013
:1020600040F2CF21C0E9011440F2E731C0E9031486
:102070008461FFF7CBF808B1FEF7A6F94FF4805062
:10208000079007A91C48FFF779F908B1FEF79CF9FA
:102090001948FFF746FB08B1FEF796F90B940BA918
:1020A00015480C94FFF77EF808B1FEF78DF9602013
:1020B000CDE900040294002269460F480494FFF71A
:1020C000CAFA08B1FEF780F9042269460A48FFF708
:1020D000C2FA08B1FEF778F9082269460648FFF708
:1020E000BAFA08B1FEF770F90348FFF769FA0EB0C3
:1020F00010BD000000080040C801002010B5114CC0
:102100000F480C2120604FF4E13060600020A06097
:10211000E060C4E90401A061E0612046FFF730FD02
:1021200008B1FEF751F92068C16841F01001C160A3
:10213000BDE81040242204490248FFF7ABBD00006F
:102140000038014010020020B6020020FEE7FEE742
:10215000002101604FF07E52C0E90112044AC260C2
:10216000044AC0E90421C161016241627047000074
:102170006666663F0AD7A33C704700002DE9F04130
:102180000546401E02283AD8002436E01D4904EBDB
:10219000440250188A5C43781A4F807800211A4E06
:1021A000B7F1180703F0010CC1F1070E16F80CC0C7
:1021B00007F80EC002F0010CC1F10F0E16F80CC0AA
:1021C00007F80EC000F0010CC1F1170E16F80CC094
:1021D0005B0852084008491C07F80EC00829E1DBDB
:1021E000084E183E0948FEF761F90128FAD1182275
:1021F00031460748FEF72EFF641CAC42C6DBBDE843
:10220000F0810000E8030020E4370008AC00002063
:102210005400002010B5032808D2054B00EB400203
:10222000D0180C0A44709954090C817010BD00003C
:10223000E8030020F8B5054600240A4E0BE0F089BB
:10224000ADF80000307C8DF8020020460099FFF7C1
:10225000E1FF641CE4B2AC42F1D3E8B2BDE8F8405F
:10226000FFF78CBFE437000870B5234C208800F0DE
:10227000F3FC0546E08800F0CDFC0646608800F0DF
:1022800091FC15F0FF4F1D4D02D110F0FF4F14D0FF
:10229000208800F0E1FC01F06DF8A860608800F093
:1022A00081FC01F067F8E86001F0A0F80446A86836
:1022B00001F09CF80022214619E016F0FF4F07D0EC
:1022C000304601F057F8686001F090F802460CE0E3
:1022D00000200B4A014600BFC0EBC00302EB8303A2
:1022E000401C59610328F7DD002200210846BDE8A3
:1022F000704000F051BE00009C020020140000203D
:10230000DC0200202DE9F041244C608900F06AFCD9
:102310000746208900F066FC214D064617F0FF4F66
:1023200006D0384601F026F82860284600F080FEE6
:1023300016F0FF4F06D0304601F01CF86860281DEB
:1023400000F0ACFEA37B174900204FF07E520BB18A
:10235000C1E90420E37B0BB1C1E90402237E032B16
:1023600004D0072B04D1C1E9062001E0C1E906022F
:102370000B4E607B083620B1C320A860304600F0C9
:10238000C3FE207B002806D0B920A8603046BDE8F7
:10239000F04100F0B9BEBDE8F08100009C020020D1
:1023A000C40300201400002010B5406A01684A6888
:1023B00022F003024A60416D41F0100141650121A4
:1023C00080F85110FEF794FD10BD10B5406AFEF77D
:1023D000A8FE10BD38B50546446AFEF77FFA0246EE
:1023E00028680068800623D42068416821F0200115
:1023F00041602068416821F002014160642120466B
:1024000000F01AF818B1606D40F020006065A06817
:10241000002118B92068C26880680090E186012018
:1024200084F85100606D18B12046FEF761FD38BD9B
:102430002046FEF775FE38BD38B50B4600920446BF
:102440000022802100F008F8002804D0606D40F0E0
:1024500020006065032038BD2DE9F8431E469146F3
:1024600088460446089DFEF739FA401B351AFEF7E8
:1024700035FA074625480068C0F3CB30684338E09A
:10248000701C37D0FEF72AFAC01BA84203D215B140
:10249000009860B32CE02068416821F0E0014160C1
:1024A0006068B0F5827F0BD1A068B0F5004F02D014
:1024B000B0F5806F04D12068016821F0400101600F
:1024C000A06AB0F5005F09D12068016821F40051CD
:1024D00001602068016841F400510160012084F826
:1024E0005100002084F850000320BDE8F883002547
:1024F000401E00902068816838EA010004D0002165
:102500004945BDD10020F0E70121F9E70C0000208A
:102510007047FEF7E9B930B58FB028216846FDF75E
:1025200053FE14210AA8FDF74FFE01210804CDE94E
:1025300000100024029402250491CDE907504FF4C5
:10254000E01009906846FEF743FB08B172B6FEE75B
:102550000F20CDE90A054FF48060CDE90C4002213F
:102560000AA80E94FEF758FA002801D072B6FEE7CA
:102570000FB030BD704700000148FEF76EBF00008D
:1025800080010020F0B50268164B174C174D4FF034
:102590008047984205D0B84203D0A04201D0A8425B
:1025A00003D122F070064A683243984205D0B842FF
:1025B00003D0A04201D0A84203D122F44074CA68DB
:1025C00022434C6922F08002224302608A68C26280
:1025D0000A688262984201D109690163012141615F
:1025E000F0BD0000002C0140000400400008004045
:1025F00010B501F01F030121046A99408C43046265
:10260000016A9A401143016210BD10B5846842EA24
:10261000032224F47F440A432243826010BD82686F
:1026200022F070020A4342F0070181607047000007
:1026300030B5036A026A22F00102026242688469CC
:1026400024F073050C682C4323F002058B682B43A0
:102650000A4DA8420BD123F00805CB6822F4407242
:102660002B434D6923F0040315438A692A434260D2
:10267000846149684163036230BD0000002C014061
:1026800030B5026A036A23F0100303624368846969
:102690000D6824F4E64444EA05248D6822F0200203
:1026A00042EA05120B4DA8420ED1CD6822F08002FD
:1026B00042EA05124D6923F4406343EA85038D69BC
:1026C00022F0400243EA85034360846149688163E4
:1026D000026230BD002C014030B5036A026A22F468
:1026E000807202624268C46923F4007324F07305A7
:1026F0000C682C438D6843EA05230C4DA8420ED18B
:10270000CD6823F4006343EA05234D6922F4405267
:1027100042EA05128D6923F4806342EA05124260A1
:10272000C4614968C163036230BD0000002C0140F0
:1027300030B5046A026A22F4805202624268C369B8
:102740000D6823F4E64343EA05238D6824F400541E
:1027500044EA0534064DA84204D14D6922F4804272
:1027600042EA85124260C36149680164046230BD77
:10277000002C014010B5036A046A24F001040462CD
:10278000846924F0F00444EA021423F00A020A43A4
:102790008461026210BD10B5036A046A24F010045B
:1027A0000462846923F0A00324F4704444EA0232F2
:1027B00043EA01118261016210BD10B5406A002137
:1027C000C185C184FFF7A4F810BD70B5446A2068C4
:1027D000406994F84110C0F3C0100025212904D1AC
:1027E00018B1E584204600F08EF82068406994F81E
:1027F0004210C0F38010222904D118B1E58520468B
:1028000000F05AF8606C40F0100060642046FFF75A
:102810007FF870BD10B50146406A096809684FF03D
:10282000000289062ED4C28501680C3151E8003FB0
:1028300023F4807341E80034002CF5D10168143191
:1028400051E8003F23F0010341E80034002CF5D1AA
:102850000168143151E8003F23F0400341E800349F
:10286000002CF5D1202180F84210016B012909D1FB
:1028700001680C3151E8003F23F0100341E80034B7
:10288000002CF5D14263016B012902D0FFF710FA49
:1028900010BD818DFFF703F810BD10B5406A01210E
:1028A0004163016B012902D0FFF703FA10BD818D4E
:1028B0004908FEF7F4FF10BD01680C3151E8002F04
:1028C00022F4907241E80023002BF5D10168143105
:1028D00051E8002F22F0010241E80023002BF5D13E
:1028E000016B012909D101680C3151E8002F22F058
:1028F000100241E80023002BF5D1202180F842107E
:1029000000210163704701680C3151E8002F22F06B
:10291000C00241E80023002BF5D1202180F84110AE
:10292000704708B590F84210222901D0022008BD56
:1029300082684FF480539A4201D1016921B1816AC2
:102940009A421BD04AB10AE00268816A5268C2F317
:1029500008020A80816A891C08E0026972B1026873
:10296000526802F07F020A70816A491C8162C18D3F
:10297000491E0904090CC18503D01BE00268526896
:10298000F1E70168CA6822F02002CA600168CA68DB
:1029900022F48072CA6001684A6922F001024A6129
:1029A000202180F8421000214163026B012A03D0EC
:1029B000FFF77EF9002008BD016301680C3151E882
:1029C000002F22F0100241E80023002BF5D101680E
:1029D0000A68D20602D50A6849680091818DFEF71F
:1029E0005EFFE7E770B5044600680169E26821F41C
:1029F0004051114301612169A0680843616908439E
:102A00002168CA6841F20C639A430243CA60206895
:102A10004169A26921F44071114341611E49206856
:102A2000884202D1FEF79EF801E0FEF78BF800EB3A
:102A3000C00101EB0012606864218000B2FBF0F37A
:102A4000B3FBF1F36FF018067343B2FBF0F5B2FB82
:102A5000F0F605EB8305322303EB0515B5FBF1F525
:102A6000B6FBF1F605F0F00505EB0615B2FBF0F646
:102A7000B2FBF0F0B0FBF1F06FF01802504306EB40
:102A8000800003EB0010B0FBF1F0216800F00F00B4
:102A90002844886070BD00000038014038B581626C
:102AA00004468285002013466064222284F8422076
:102AB000E56B1B4AAA62E56B1A4AEA62E56B1A4AA1
:102AC0002A63E26B50630A462168E06B091DFDF73B
:102AD000C9FD2068016840680090206948B12068FD
:102AE0000C3050E8001F41F4807140E80012002AC9
:102AF000F5D12068143050E8001F41F0010140E892
:102B00000012002AF5D12068143050E8001F41F06F
:102B1000400140E80012002AF5D1002038BD000035
:102B2000152800089B280008CB2700080E4808B588
:102B300000680168C1F3001181B10C4A01211170D4
:102B40000168406800900848FEF7AAFE084800683F
:102B500040680849C0B2C0F124000870BDE80840D0
:102B60000148FEF7D7BE000010020020110000202F
:102B70005802002010000020FEE70907090E002877
:102B800004DB00F1E02080F80014704700F00F0033
:102B900000F1E02080F8141D7047084000D00120AB
:102BA00070470000A0F5FA4110B5653940F26B722C
:102BB000914201D2002003E0A0F5004000F016FC95
:102BC0006FF00E0100F0BBFD044900F03BFC044631
:102BD00000F0D0FB02490862204610BD00005C43B3
:102BE0001400002010B538B100F018FC064900F0C0
:102BF000FFFA064900F026FC044600F0BBFB04493E
:102C0000C862204610BD000000C07F44000034436D
:102C100014000020A0F5FA4110B5653940F26B723E
:102C2000914201D2002003E0A0F5004000F0DEFB5D
:102C30006FF00E0100F083FD054900F003FC00F089
:102C400099FB04498862BDE8104000F0CFBB00004A
:102C500000005C4314000020A0F5FA4110B565396E
:102C600040F26B72914201D2002003E0A0F50040D7
:102C700000F0BCFB6FF00E0100F061FD054900F0B3
:102C8000E1FB00F077FB04494862BDE8104000F02A
:102C9000ADBB000000005C4314000020FDF72CFEDB
:102CA000FFF739FCFFF726F8FFF706F8FFF726FADB
:102CB000FFF790F9FFF7D6F8FFF7C2F9FFF72CF905
:102CC000FFF7ACF80648FEF72DFB0548FEF702FBC0
:102CD0000320FFF7AFFA00F005F800F095F9FEE7E2
:102CE0008001002070B51648FEF7F4FA1548FEF78B
:102CF000F1FA00211248FEF757FD04211148FEF7B2
:102D000053FD00210F48FEF74FFD0C210C48FEF744
:102D10004BFD0C4900200A685063094A1368186487
:102D20000968886311684863074D044604EB840012
:102D300005EBC000FFF70CFA641C032CF6DD70BD38
:102D4000F0000020C80100204C0300202DE9F05FB6
:102D5000DFF824A2894E8A4F8A4D04464FF40009B9
:102D60004FF0000831B1012941D002297ED003295A
:102D70007DD1BFE06069DFF810B2484511DB002269
:102D800020215846FDF7A4FD012210215846FDF7E9
:102D90009FFD7E49606900F055FB00F007FB396834
:102DA00048636069504511D3002210215846FDF751
:102DB0008FFD012220215846FDF78AFD7449606984
:102DC00000F040FB00F0F2FA39684863606910F0E7
:102DD000FF4F0CD1002220215846FDF779FD00223B
:102DE00010215846FDF774FD3968C1F834806069D8
:102DF000DFF8A0B1484512DB00224FF400515846DD
:102E0000FDF766FD012291035846FDF761FD5F491C
:102E1000606900F017FB00F0C9FA316888636069E7
:102E2000504512D300224FF480415846FDF750FD23
:102E3000012251035846FDF74BFD5549606900F0EA
:102E400001FB00F0B3FA31688863606910F0FF4F4E
:102E500011D100224FF400515846FDF739FD0022F0
:102E60004FF480415846FDF733FD01E003E080E078
:102E70003168C1F8388060694FF4805B484512DBE7
:102E800000224FF400512846FDF722FD0122594649
:102E90002846FDF71DFD3D49606900F0D3FA00F0BA
:102EA00085FA316848636069504511D3002259465C
:102EB0002846FDF70DFD012251032846FDF708FDC8
:102EC0003349606900F0BEFA00F070FA3168486377
:102ED000606910F0FF4F0DD1002259462846FDF7DA
:102EE000F7FC00224FF400512846FDF7F1FC316851
:102EF000C1F8348060694FF40046484511DB002278
:102F000031462846FDF7E4FC012291032846FDF7EF
:102F1000DFFC1E49606900F095FA00F047FA396855
:102F200008646069504512D300224FF4804128465E
:102F3000FDF7CEFC012231462846FDF7C9FC1449B5
:102F4000606900F07FFA00F031FA3968086460695E
:102F500010F0FF4F0DD100224FF480412846FDF7BD
:102F6000B7FC002231462846FDF7B2FC3968C1F8AB
:102F70004080BDE8F09F000000008080C801002074
:102F8000F0000020000C01400008014048E18A40A8
:102F900048E18AC0001001402DE9F0410E4680460C
:102FA0001749104600F04EFA04463146404600F0FC
:102FB000B7F80746214600F01BFB124D3146686109
:102FC000404600F015FB0646214600F011FB286341
:102FD0002146384600F0A4F8E8642146304600F067
:102FE0009FF80024C5F86800C4EBC40005EB80001E
:102FF0002146FFF7ABFE641C032CF5DDBDE8F08134
:103000003333F33EDC02002010B50848FEF762F9C6
:1030100000210648FEF7C8FB04210448FEF7C4FB64
:10302000BDE8104008210148FEF7BEBB3801002072
:103030002DE9F0410468204600F0D8F9114900F06C
:10304000D7F8114900F0CAFA054600F093F90F4E7F
:1030500031688C4202DA00F0C9F905460C480D4F80
:10306000006820B9284600F0A1F9396848630A4889
:103070000068012802D13968C32048633460BDE884
:10308000F08100000000304100003843440000207F
:103090002400002038010020280000202DE9F04104
:1030A0000468204600F0A2F9114900F0A1F8114986
:1030B00000F094FA054600F05DF90F4EB1688C42BD
:1030C00002DA00F093F905460C480D4F006820B96C
:1030D000284600F06BF9396888630A4800680128BF
:1030E00002D13968BE208863B460BDE8F081000079
:1030F0000000304100003C43440000202C00002030
:10310000380100203000002010B5006800F06EF992
:1031100000F04CF901490968C86310BD380100206E
:1031200090EA010F48BF81F0004100F16882421A25
:103130003CBF801A89184FEAD0524FF07F4C1CEAEE
:10314000410FA2EBD15318BF9CEA026F00F03B8005
:103150004FF0004C4CEA00204CEA012121FA03FC1C
:1031600010EB0C0C1ED202F1FF325FEA1C2040EB88
:10317000C25038BF70471CF07F0F4FEA400C18BF99
:10318000BCF17F4F38BF7047C3F12003994008BF9F
:1031900020F00100BCF17F4F38BF7047A0F1C04064
:1031A00000F017BA4FEA3C00000A40EBC25028BFBB
:1031B0001CF0FF0F4FEA400CE6D018BFBCF17F4F68
:1031C00038BF7047EAE79CEA026F05D010EA5C0F4F
:1031D00008BF00F00040704710B500F0B4F900BF20
:1031E00064FBBE3E014800F078BA00BF0000C07F1B
:1031F0004FF47F0C1CEAD0121EBF1CEAD11392EAD6
:103200000C0F93EA0C0F00F0858090EA010F48BF85
:1032100042F4807240F4000C41F400002CF07F4135
:1032200020F07F4000B58142A2EB03020FF2081CA0
:10323000ACEB504EC0F100009EF800E04FEA4E0E9D
:1032400000FB0EFC38BF49004FEA2C1C02F5FA02C5
:103250000CFB0EF34FEACE1E4FEA112C4FEAC121B0
:103260000EEB635E42EB22420EFB0CFC4FEA1C535A
:1032700000FB03114FEA112C4FEA01310EFB0CFC4D
:103280004FEADC4C00FB0C11C14228BF09184CEB83
:1032900003335DF804EB10EB410143EBC250B2F590
:1032A0007C0F38BF704729D512F0F00F1CBF00F11A
:1032B000C04000F00040704700818283848586878B
:1032C00088898B8C8D8E8F919293959697999A9CE5
:1032D0009D9FA0A2A3A5A7A8AAACAEB0B2B3B5B754
:1032E000B9BCBEC0C2C5C7C9CCCED1D4D7D9DCDF2A
:1032F000E2E6E9ECF0F3F7FAFE0000004FEA400CDA
:103300000CF1807CBCF17E4F28BF7047B0F1C0400B
:1033100000F05FB990EA010F0CEAD11348BF42F404
:103320008072624538BF634507D213F47F0F16D011
:1033300080EA010000F00040704710B500F003F98A
:10334000097EFC3E00F005B880EA010000F0004074
:10335000704780EA010000F0004000F03AB912F432
:103360007F0F04BF0248704780EA010000F031B9C6
:103370000000C07F41000B0ED3F19E0208D950F42B
:1033800000034FEA032323FA02F048BF404270478C
:1033900010B500F0D8F800BF499224800020704793
:1033A0006FF0004282EA200070470000C10DD1F1A9
:1033B0009E0206DB4FEA002343F0004323FA02F0AB
:1033C0007047004207D54FEA4001B1F1FE4F02D2EB
:1033D0004FF00000704710B500F0B5F84992248016
:1033E000002070476FEA20007047000010F0004195
:1033F00048BF4042B0FA80F310FA03F2C3F19D03D4
:103400000BD051EAC35101EB1220530638BF70476D
:1034100000F1010008BF20F001007047B0FA80F30E
:1034200010FA03F2C3F19D030AD0D90501EB122073
:10343000530638BF704700F1010008BF20F00100BB
:10344000704700004FF47F0C1CEAD0121EBF1CEA2C
:10345000D11392EA0C0F93EA0C0F00F0478090EA28
:10346000010F48BF42F480724FF0004C4CEA00203C
:103470004CEA012102EB0302A0FB0113A2F50002BA
:10348000002918BF43F001035B0028BF4FEA330354
:1034900042EB22425FEA132C4CEBC2502EBFBCEB36
:1034A000436FB2F57C0F70474FEA036CBCF1004FDD
:1034B00008BF20F00100B2F57C0F38BF70470BD574
:1034C00082F0FF0212F5803FC8BF704700F1C04094
:1034D000D8BF00F00040704700F5000C5FEA4C0CCC
:1034E00048BF7047B0F1C04000F073B890EA010FD8
:1034F0000CEAD11348BF42F48072624538BF63457D
:1035000004D280EA010000F00040704710B500F0DE
:103510001AF800BF8900013E00F007B800F009B8B2
:103520005FEA410C5FEA1C6C08D080EA010000F001
:1035300050B85FEA400C5FEA1C6CF6D14FF00040D7
:10354000A0F5800070470EF1020E2EF0030E5EF81B
:10355000044B244204D44FEA4102B2F17F4F11D808
:103560004FEA4003B3F17F4F0CD80ED14FEAD07C25
:10357000B2F17F4F0CEB4C0C0CF1020C08BF4CEB82
:10358000D17C04E04FF0080C01E04FEAD17C0CEB59
:103590004C0324FA03F404F00704B4F1040C06D23B
:1035A0000EEB840CBDE810404CF0010C6047DFE8E6
:1035B0000CF0070802024FF00040A0F5800010BD9B
:1035C0000846420018BFD2F1807288BF00F0004068
:1035D00010BDFF2141EAD050C005704780F0004087
:1035E00090EA010F7FF5A3AD81F0004100F007B82C
:1035F00090EA010F48BF81F000413FF598AD421AB3
:1036000004D882F00042A0EB020011444FEAD052ED
:103610004FF07F4C1CEA410FA2EBD15318BF9CEA3C
:10362000026F4AD04FF0004C4CEA00204CEA0121D6
:1036300021FA03FCB0EB0C0C0FD412F0FE0F36D0C5
:103640005FEA4C001DD5001240EBC25038BF7047F6
:103650001CF03F0F18BF70470BE0A2F101025FEAB8
:103660001C2040EBC25038BF70471CF07F0F18BFC2
:103670007047C3F12003994014BF401E20F00100A1
:10368000704780084FEA122308BF7047B0FA80FCE9
:10369000A2EB0C02CCF1280C60FA0CF093EA122F8A
:1036A00004BF00EBC25070474FEAC3707047130A63
:1036B0005FEADC1008BF7047F6E79CEA026F04D0AF
:1036C00010EA5C0F08BF0020704710B5FFF73BFF02
:1036D00040DFF63E81F0004070470CF00F03092BED
:1036E00008BF082000F051800A2B0BD0082B18BF10
:1036F000704708BF1CF0400F0AD04FF000004FF099
:10370000000170471CF0400F18BF4FF00040704799
:103710001CF0100F08D020F0704300F07F4242EA06
:10372000D3014FEA4370704700F0604021F07F42C0
:1037300042EA000201F07F4040EA727070474FF0A9
:10374000FF0212EAD0521CBF92F0FF038B42C2BFAD
:10375000D14200EBC1507047002A0AD0002B0BD099
:10376000002900F00040A4BF40F0FE4040F40000FB
:10377000704700F00040704743024FF00B0C18BF39
:103780004CF0806C7FF42EAD70471CF4801F11D07C
:103790001CF4E02F03D06FEACC31490070474FF0A2
:1037A0004050EFF3008222F0704242EA000282F3BE
:1037B000008870474FF000007047010202030405C3
:1037C000060708090A0B0C0D0E0F10100000000070
:1037D00000000000010203040607080900000000C1
:1037E00001020304C0FC1E0000001E0000001E1E9B
:1037F0001E001E1E1E0000001838000800000020D9
:1038000054000000280100086C3800085400002013
:10381000040A00004401000801000000100000003C
:10382000000000000024F400000000000000000080
:103830000000000000000000000000000000000088
:103840000000000000000000000000000000000078
:103850000000000000000000000000000000000068
:0C3860000000000000000000000000005C
:04000005080000ED02
:00000001FF
